{
  "contractName": "AirlineContracts",
  "abi": [
    {
      "inputs": [],
      "stateMutability": "nonpayable",
      "type": "constructor"
    },
    {
      "inputs": [],
      "name": "admin",
      "outputs": [
        {
          "internalType": "address",
          "name": "",
          "type": "address"
        }
      ],
      "stateMutability": "view",
      "type": "function",
      "constant": true
    },
    {
      "inputs": [
        {
          "internalType": "address",
          "name": "",
          "type": "address"
        }
      ],
      "name": "bookings",
      "outputs": [
        {
          "internalType": "bool",
          "name": "booked",
          "type": "bool"
        },
        {
          "internalType": "uint256",
          "name": "flightID",
          "type": "uint256"
        },
        {
          "internalType": "bool",
          "name": "checkedIn",
          "type": "bool"
        },
        {
          "internalType": "bool",
          "name": "insured",
          "type": "bool"
        },
        {
          "internalType": "uint256",
          "name": "insuranceTier",
          "type": "uint256"
        },
        {
          "internalType": "uint256",
          "name": "bagStatus",
          "type": "uint256"
        },
        {
          "internalType": "string",
          "name": "flightStatus",
          "type": "string"
        },
        {
          "internalType": "uint256",
          "name": "departureTime",
          "type": "uint256"
        }
      ],
      "stateMutability": "view",
      "type": "function",
      "constant": true
    },
    {
      "inputs": [
        {
          "internalType": "uint256",
          "name": "id",
          "type": "uint256"
        }
      ],
      "name": "bookFlight",
      "outputs": [],
      "stateMutability": "nonpayable",
      "type": "function"
    },
    {
      "inputs": [],
      "name": "checkIn",
      "outputs": [],
      "stateMutability": "nonpayable",
      "type": "function"
    },
    {
      "inputs": [
        {
          "internalType": "uint256",
          "name": "tier",
          "type": "uint256"
        }
      ],
      "name": "buyInsurance",
      "outputs": [],
      "stateMutability": "payable",
      "type": "function",
      "payable": true
    },
    {
      "inputs": [
        {
          "internalType": "address",
          "name": "p",
          "type": "address"
        },
        {
          "internalType": "uint256",
          "name": "s",
          "type": "uint256"
        }
      ],
      "name": "updateBaggage",
      "outputs": [],
      "stateMutability": "nonpayable",
      "type": "function"
    },
    {
      "inputs": [
        {
          "internalType": "address",
          "name": "p",
          "type": "address"
        },
        {
          "internalType": "string",
          "name": "s",
          "type": "string"
        }
      ],
      "name": "updateFlightStatus",
      "outputs": [],
      "stateMutability": "nonpayable",
      "type": "function"
    },
    {
      "inputs": [
        {
          "internalType": "address",
          "name": "p",
          "type": "address"
        },
        {
          "internalType": "uint256",
          "name": "t",
          "type": "uint256"
        }
      ],
      "name": "updateDepartureTime",
      "outputs": [],
      "stateMutability": "nonpayable",
      "type": "function"
    }
  ],
  "bytecode": "0x608060405234801561000f575f80fd5b50335f806101000a81548173ffffffffffffffffffffffffffffffffffffffff021916908373ffffffffffffffffffffffffffffffffffffffff1602179055506112118061005c5f395ff3fe60806040526004361061007a575f3560e01c8063a0a934ff1161004d578063a0a934ff1461010c578063a86a658c1461014f578063df47032d1461016b578063f851a440146101935761007a565b8063183ff0851461007e5780637a19f21d14610094578063882ca113146100bc5780638df2f203146100e4575b5f80fd5b348015610089575f80fd5b506100926101bd565b005b34801561009f575f80fd5b506100ba60048036038101906100b5919061099a565b6102a1565b005b3480156100c7575f80fd5b506100e260048036038101906100dd9190610b14565b610377565b005b3480156100ef575f80fd5b5061010a60048036038101906101059190610b6e565b610456565b005b348015610117575f80fd5b50610132600480360381019061012d9190610b99565b61051b565b604051610146989796959493929190610c67565b60405180910390f35b61016960048036038101906101649190610b6e565b61060a565b005b348015610176575f80fd5b50610191600480360381019061018c919061099a565b610803565b005b34801561019e575f80fd5b506101a76108d9565b6040516101b49190610cf9565b60405180910390f35b60015f3373ffffffffffffffffffffffffffffffffffffffff1673ffffffffffffffffffffffffffffffffffffffff1681526020019081526020015f205f015f9054906101000a900460ff16610248576040517f08c379a000000000000000000000000000000000000000000000000000000000815260040161023f90610d5c565b60405180910390fd5b6001805f3373ffffffffffffffffffffffffffffffffffffffff1673ffffffffffffffffffffffffffffffffffffffff1681526020019081526020015f206002015f6101000a81548160ff021916908315150217905550565b5f8054906101000a900473ffffffffffffffffffffffffffffffffffffffff1673ffffffffffffffffffffffffffffffffffffffff163373ffffffffffffffffffffffffffffffffffffffff161461032e576040517f08c379a000000000000000000000000000000000000000000000000000000000815260040161032590610dc4565b60405180910390fd5b8060015f8473ffffffffffffffffffffffffffffffffffffffff1673ffffffffffffffffffffffffffffffffffffffff1681526020019081526020015f20600401819055505050565b5f8054906101000a900473ffffffffffffffffffffffffffffffffffffffff1673ffffffffffffffffffffffffffffffffffffffff163373ffffffffffffffffffffffffffffffffffffffff1614610404576040517f08c379a00000000000000000000000000000000000000000000000000000000081526004016103fb90610dc4565b60405180910390fd5b8060015f8473ffffffffffffffffffffffffffffffffffffffff1673ffffffffffffffffffffffffffffffffffffffff1681526020019081526020015f2060050190816104519190610fdc565b505050565b5f60015f3373ffffffffffffffffffffffffffffffffffffffff1673ffffffffffffffffffffffffffffffffffffffff1681526020019081526020015f2090506001815f015f6101000a81548160ff0219169083151502179055508181600101819055506040518060400160405280600981526020017f5363686564756c656400000000000000000000000000000000000000000000008152508160050190816105009190610fdc565b50612a304261050f91906110d8565b81600601819055505050565b6001602052805f5260405f205f91509050805f015f9054906101000a900460ff1690806001015490806002015f9054906101000a900460ff16908060020160019054906101000a900460ff169080600301549080600401549080600501805461058390610e0f565b80601f01602080910402602001604051908101604052809291908181526020018280546105af90610e0f565b80156105fa5780601f106105d1576101008083540402835291602001916105fa565b820191905f5260205f20905b8154815290600101906020018083116105dd57829003601f168201915b5050505050908060060154905088565b60015f3373ffffffffffffffffffffffffffffffffffffffff1673ffffffffffffffffffffffffffffffffffffffff1681526020019081526020015f205f015f9054906101000a900460ff16610695576040517f08c379a000000000000000000000000000000000000000000000000000000000815260040161068c90610d5c565b60405180910390fd5b600181101580156106a7575060038111155b6106e6576040517f08c379a00000000000000000000000000000000000000000000000000000000081526004016106dd90611155565b60405180910390fd5b5f600182036106fa576611c37937e0800090505b6002820361070d57662386f26fc1000090505b600382036107205766470de4df82000090505b803414610762576040517f08c379a0000000000000000000000000000000000000000000000000000000008152600401610759906111bd565b60405180910390fd5b6001805f3373ffffffffffffffffffffffffffffffffffffffff1673ffffffffffffffffffffffffffffffffffffffff1681526020019081526020015f2060020160016101000a81548160ff0219169083151502179055508160015f3373ffffffffffffffffffffffffffffffffffffffff1673ffffffffffffffffffffffffffffffffffffffff1681526020019081526020015f20600301819055505050565b5f8054906101000a900473ffffffffffffffffffffffffffffffffffffffff1673ffffffffffffffffffffffffffffffffffffffff163373ffffffffffffffffffffffffffffffffffffffff1614610890576040517f08c379a000000000000000000000000000000000000000000000000000000000815260040161088790610dc4565b60405180910390fd5b8060015f8473ffffffffffffffffffffffffffffffffffffffff1673ffffffffffffffffffffffffffffffffffffffff1681526020019081526020015f20600601819055505050565b5f8054906101000a900473ffffffffffffffffffffffffffffffffffffffff1681565b5f604051905090565b5f80fd5b5f80fd5b5f73ffffffffffffffffffffffffffffffffffffffff82169050919050565b5f6109368261090d565b9050919050565b6109468161092c565b8114610950575f80fd5b50565b5f813590506109618161093d565b92915050565b5f819050919050565b61097981610967565b8114610983575f80fd5b50565b5f8135905061099481610970565b92915050565b5f80604083850312156109b0576109af610905565b5b5f6109bd85828601610953565b92505060206109ce85828601610986565b9150509250929050565b5f80fd5b5f80fd5b5f601f19601f8301169050919050565b7f4e487b71000000000000000000000000000000000000000000000000000000005f52604160045260245ffd5b610a26826109e0565b810181811067ffffffffffffffff82111715610a4557610a446109f0565b5b80604052505050565b5f610a576108fc565b9050610a638282610a1d565b919050565b5f67ffffffffffffffff821115610a8257610a816109f0565b5b610a8b826109e0565b9050602081019050919050565b828183375f83830152505050565b5f610ab8610ab384610a68565b610a4e565b905082815260208101848484011115610ad457610ad36109dc565b5b610adf848285610a98565b509392505050565b5f82601f830112610afb57610afa6109d8565b5b8135610b0b848260208601610aa6565b91505092915050565b5f8060408385031215610b2a57610b29610905565b5b5f610b3785828601610953565b925050602083013567ffffffffffffffff811115610b5857610b57610909565b5b610b6485828601610ae7565b9150509250929050565b5f60208284031215610b8357610b82610905565b5b5f610b9084828501610986565b91505092915050565b5f60208284031215610bae57610bad610905565b5b5f610bbb84828501610953565b91505092915050565b5f8115159050919050565b610bd881610bc4565b82525050565b610be781610967565b82525050565b5f81519050919050565b5f82825260208201905092915050565b5f5b83811015610c24578082015181840152602081019050610c09565b5f8484015250505050565b5f610c3982610bed565b610c438185610bf7565b9350610c53818560208601610c07565b610c5c816109e0565b840191505092915050565b5f61010082019050610c7b5f83018b610bcf565b610c88602083018a610bde565b610c956040830189610bcf565b610ca26060830188610bcf565b610caf6080830187610bde565b610cbc60a0830186610bde565b81810360c0830152610cce8185610c2f565b9050610cdd60e0830184610bde565b9998505050505050505050565b610cf38161092c565b82525050565b5f602082019050610d0c5f830184610cea565b92915050565b7f426f6f6b20666c696768742066697273740000000000000000000000000000005f82015250565b5f610d46601183610bf7565b9150610d5182610d12565b602082019050919050565b5f6020820190508181035f830152610d7381610d3a565b9050919050565b7f41646d696e206f6e6c79000000000000000000000000000000000000000000005f82015250565b5f610dae600a83610bf7565b9150610db982610d7a565b602082019050919050565b5f6020820190508181035f830152610ddb81610da2565b9050919050565b7f4e487b71000000000000000000000000000000000000000000000000000000005f52602260045260245ffd5b5f6002820490506001821680610e2657607f821691505b602082108103610e3957610e38610de2565b5b50919050565b5f819050815f5260205f209050919050565b5f6020601f8301049050919050565b5f82821b905092915050565b5f60088302610e9b7fffffffffffffffffffffffffffffffffffffffffffffffffffffffffffffffff82610e60565b610ea58683610e60565b95508019841693508086168417925050509392505050565b5f819050919050565b5f610ee0610edb610ed684610967565b610ebd565b610967565b9050919050565b5f819050919050565b610ef983610ec6565b610f0d610f0582610ee7565b848454610e6c565b825550505050565b5f90565b610f21610f15565b610f2c818484610ef0565b505050565b5b81811015610f4f57610f445f82610f19565b600181019050610f32565b5050565b601f821115610f9457610f6581610e3f565b610f6e84610e51565b81016020851015610f7d578190505b610f91610f8985610e51565b830182610f31565b50505b505050565b5f82821c905092915050565b5f610fb45f1984600802610f99565b1980831691505092915050565b5f610fcc8383610fa5565b9150826002028217905092915050565b610fe582610bed565b67ffffffffffffffff811115610ffe57610ffd6109f0565b5b6110088254610e0f565b611013828285610f53565b5f60209050601f831160018114611044575f8415611032578287015190505b61103c8582610fc1565b8655506110a3565b601f19841661105286610e3f565b5f5b8281101561107957848901518255600182019150602085019450602081019050611054565b868310156110965784890151611092601f891682610fa5565b8355505b6001600288020188555050505b505050505050565b7f4e487b71000000000000000000000000000000000000000000000000000000005f52601160045260245ffd5b5f6110e282610967565b91506110ed83610967565b9250828201905080821115611105576111046110ab565b5b92915050565b7f496e76616c6964207469657200000000000000000000000000000000000000005f82015250565b5f61113f600c83610bf7565b915061114a8261110b565b602082019050919050565b5f6020820190508181035f83015261116c81611133565b9050919050565b7f496e636f72726563742045544820616d6f756e740000000000000000000000005f82015250565b5f6111a7601483610bf7565b91506111b282611173565b602082019050919050565b5f6020820190508181035f8301526111d48161119b565b905091905056fea264697066735822122099ce6764f37a79da3a3f7cc70644349f65c9dc7e3f70a90bd56a62aa8fcd489464736f6c63430008150033",
  "immutableReferences": {},
  "source": "// SPDX-License-Identifier: MIT\npragma solidity ^0.8.21;\n\ncontract AirlineContracts {\n    address public admin;\n\n    struct Booking {\n        bool booked;\n        uint256 flightID;\n        bool checkedIn;\n        bool insured;\n        uint256 insuranceTier;  // 1 = Basic, 2 = Pro, 3 = Full\n        uint256 bagStatus;\n        string flightStatus;\n        uint256 departureTime;\n    }\n\n    mapping(address => Booking) public bookings;\n\n    constructor() {\n        admin = msg.sender;\n    }\n\n    function bookFlight(uint256 id) external {\n        Booking storage b = bookings[msg.sender];\n        b.booked = true;\n        b.flightID = id;\n        b.flightStatus = \"Scheduled\";\n        b.departureTime = block.timestamp + 3 hours;\n    }\n\n    function checkIn() external {\n        require(bookings[msg.sender].booked, \"Book flight first\");\n        bookings[msg.sender].checkedIn = true;\n    }\n\n    function buyInsurance(uint256 tier) external payable {\n        require(bookings[msg.sender].booked, \"Book flight first\");\n        require(tier >= 1 && tier <= 3, \"Invalid tier\");\n\n        uint256 cost = 0;\n        if (tier == 1) cost = 0.005 ether;\n        if (tier == 2) cost = 0.01 ether;\n        if (tier == 3) cost = 0.02 ether;\n\n        require(msg.value == cost, \"Incorrect ETH amount\");\n\n        bookings[msg.sender].insured = true;\n        bookings[msg.sender].insuranceTier = tier;\n    }\n\n    function updateBaggage(address p, uint256 s) external {\n        require(msg.sender == admin, \"Admin only\");\n        bookings[p].bagStatus = s;\n    }\n\n    function updateFlightStatus(address p, string memory s) external {\n        require(msg.sender == admin, \"Admin only\");\n        bookings[p].flightStatus = s;\n    }\n\n    function updateDepartureTime(address p, uint256 t) external {\n        require(msg.sender == admin, \"Admin only\");\n        bookings[p].departureTime = t;\n    }\n}\n",
  "sourcePath": "/home/dagem/united-airlines-dapp/contracts/AirlineContracts.sol",
  "compiler": {
    "name": "solc",
    "version": "0.8.21+commit.d9974bed.Emscripten.clang"
  },
  "schemaVersion": "3.4.16",
  "updatedAt": "2025-12-01T01:40:50.572Z",
  "networkType": "ethereum",
  "devdoc": {
    "kind": "dev",
    "methods": {},
    "version": 1
  },
  "userdoc": {
    "kind": "user",
    "methods": {},
    "version": 1
  }
}